:100000000C9435000C945D000C945D000C945D0024
:100010000C945D000C945D000C945D000C945D00EC
:100020000C945D000C945D000C945D000C945D00DC
:100030000C945D000C945D000C945D000C945D00CC
:100040000C9413030C945D000C94FE030C94450473
:100050000C945D000C945D000C945D000C945D00AC
:100060000C945D000C945D00AB0511241FBECFEF16
:10007000D8E0DEBFCDBF11E0A0E0B1E0E0EBF0E101
:1000800002C005900D92AA31B107D9F712E0AAE19A
:10009000B1E001C01D92AC30B107E1F710E0CAE653
:1000A000D0E004C02297FE010E945208C836D10752
:1000B000C9F70E94FB050C9456080C94000080912F
:1000C0001C0190911D01019690931D0180931C01CC
:1000D000809140019091410190931F0180931E01F6
:1000E00080914201909143019093210180932001DE
:1000F00080914401909145019093230180932201C6
:1001000080914601909147019093250180932401AD
:100110008091480190914901909327018093260195
:1001200080914A0190914B0190932901809328017D
:1001300080914C0190914D0190932B0180932A0165
:1001400080914E0190914F0190932D0180932C014D
:10015000809150019091510190932F0180932E0135
:10016000809152019091530190933101809330011D
:100170008091540190915501909333018093320105
:1001800080915601909157019093350180933401ED
:1001900080915801909159019093370180933601D5
:1001A00080915A0190915B019093390180933801BD
:1001B0000895109241011092400110924301109253
:1001C0004201109245011092440110924701109291
:1001D0004601109249011092480110924B01109271
:1001E0004A0110924D0110924C0110924F01109251
:1001F0004E01109251011092500110925301109231
:100200005201109255011092540110925701109210
:100210005601109259011092580110925B011092F0
:100220005A010895EF92FF920F931F930DEE11E084
:1002300060911C0170911D01C8014AE050E00E94CC
:100240000C0780E0E82E81E0F82EC801B7010E947B
:100250003E0760911E0170911F01C8014AE050E005
:100260000E940C07C801B7010E943E07609120015F
:1002700070912101C8014AE050E00E940C07C801BA
:10028000B7010E943E076091220170912301C801CD
:100290004AE050E00E940C07C801B7010E943E07E7
:1002A0006091240170912501C8014AE050E00E944C
:1002B0000C07C801B7010E943E07609126017091AA
:1002C0002701C8014AE050E00E940C07C801B701AD
:1002D0000E943E076091280170912901C8014AE0FF
:1002E00050E00E940C07C801B7010E943E076091D0
:1002F0002A0170912B01C8014AE050E00E940C07CE
:10030000C801B7010E943E0760912C0170912D0138
:10031000C8014AE050E00E940C07C801B7010E94E2
:100320003E0760912E0170912F01C8014AE050E014
:100330000E940C07C801B7010E943E07609130017E
:1003400070913101C8014AE050E00E940C07C801D9
:10035000B7010E943E076091320170913301C801DC
:100360004AE050E00E940C07C801B7010E943E0716
:100370006091340170913501C8014AE050E00E945B
:100380000C07C801B7010E943E07609136017091C9
:100390003701C8014AE050E00E940C07C801B701CC
:1003A0000E943E076091380170913901C8014AE00E
:1003B00050E00E940C07C801B7010E943E076091FF
:1003C0003A0170913B01C8014AE050E00E940C07DD
:1003D000C801B7010E943E0760913C0170913D0148
:1003E000C8014AE050E00E940C07C801B7010E9412
:1003F0003E0760913E0170913F01C8014AE050E024
:100400000E941F071F910F91FF90EF900895809118
:100410001A0190911B010E9711F40E945F008091C8
:100420001A0190911B011816190614F40E9412016A
:100430000E94D90010921B0110921A0108950CC05D
:100440008DEE91E062E071E00E9441076CE271E0A4
:1004500080E090E00E9469038DEE91E00E94060525
:10046000181619066CF708958DEE91E00E940605A6
:10047000892B09F0C4C00E940702C1C080911A01F3
:1004800090911B018630910509F469C08730910570
:10049000ACF48230910509F43EC08330910534F408
:1004A000009739F1019709F0A1C02CC08430910563
:1004B00009F443C005970CF049C036C08A30910555
:1004C00009F471C08B30910544F48830910509F42A
:1004D00058C009970CF05EC04BC08C30910509F4F0
:1004E00074C08C3091050CF467C00D9709F07EC084
:1004F00075C08DEE91E00E940B08709341016093EE
:10050000400174C08DEE91E00E940B08709343018E
:10051000609342016BC08DEE91E00E940B087093D6
:1005200045016093440162C08DEE91E00E940B088A
:10053000709347016093460159C08DEE91E00E948F
:100540000B08709349016093480150C08DEE91E013
:100550000E940B0870934B0160934A0147C08DEED7
:1005600091E00E940B0870934D0160934C013EC0D6
:100570008DEE91E00E940B0870934F0160934E0145
:1005800035C08DEE91E00E940B087093510160938D
:1005900050012CC08DEE91E00E940B087093530126
:1005A0006093520123C08DEE91E00E940B0870937E
:1005B0005501609354011AC08DEE91E00E940B0822
:1005C000709357016093560111C08DEE91E00E9427
:1005D0000B08709359016093580108C08DEE91E0AB
:1005E0000E940B0870935B0160935A0180911A017D
:1005F00090911B01019690931B0180931A018DEE3F
:1006000091E00E940605181619060CF437CF0895DC
:100610008DEE91E040E855E260E070E00E948004D9
:100620000E941F0208951F920F920FB60F9211247D
:100630002F933F938F939F93AF93BF9380916001CC
:1006400090916101A0916201B091630130916401C8
:100650000196A11DB11D232F2D5F2D3720F02D57A1
:100660000196A11DB11D20936401809360019093B8
:100670006101A0936201B093630180915C0190914C
:100680005D01A0915E01B0915F010196A11DB11DB8
:1006900080935C0190935D01A0935E01B0935F0134
:1006A000BF91AF919F918F913F912F910F900FBE6E
:1006B0000F901F9018958FB7F8942091600130919A
:1006C000610140916201509163018FBFB901CA017C
:1006D00008959B01AC017FB7F89480915C019091E3
:1006E0005D01A0915E01B0915F0166B5A89B05C058
:1006F0006F3F19F00196A11DB11D7FBFBA2FA92F21
:10070000982F8827860F911DA11DB11D62E0880FCB
:10071000991FAA1FBB1F6A95D1F7BC012DC0FFB757
:10072000F89480915C0190915D01A0915E01B0917F
:100730005F01E6B5A89B05C0EF3F19F00196A11D2A
:10074000B11DFFBFBA2FA92F982F88278E0F911D9B
:10075000A11DB11DE2E0880F991FAA1FBB1FEA95DA
:10076000D1F7861B970B885E9340C8F2215030402A
:100770004040504068517C4F2115310541055105DD
:1007800071F60895789484B5826084BD84B58160E3
:1007900084BD85B5826085BD85B5816085BDEEE689
:1007A000F0E0808181608083E1E8F0E01082808168
:1007B00082608083808181608083E0E8F0E08081D6
:1007C00081608083E1EBF0E0808184608083E0EBF6
:1007D000F0E0808181608083EAE7F0E080818460DE
:1007E000808380818260808380818160808380813A
:1007F000806880831092C100089508951F920F921F
:100800000FB60F9211242F933F934F938F939F9383
:10081000EF93FF934091C6002091A5013091A6016E
:100820002F5F3F4F2F7330708091A7019091A801E7
:100830002817390759F0E091A501F091A601EB596D
:10084000FE4F40833093A6012093A501FF91EF91C5
:100850009F918F914F913F912F910F900FBE0F90CD
:100860001F901895E091F901F091FA01E05CFF4FBB
:100870008191919120813181821B930B8F739070B4
:10088000892B11F00E94FD0308951F920F920FB65D
:100890000F9211242F933F938F939F93EF93FF9386
:1008A0002091E9013091EA018091EB019091EC01F6
:1008B0002817390731F48091C1008F7D8093C100E2
:1008C00014C0E091EB01F091EC01E755FE4F20815F
:1008D0008091EB019091EC0101968F739070909351
:1008E000EC018093EB012093C600FF91EF919F9163
:1008F0008F913F912F910F900FBE0F901F901895E1
:10090000AF92BF92DF92EF92FF920F931F93CF931C
:10091000DF93EC017A018B01DD24403081EE580732
:1009200080E0680780E0780711F0DD24D39491E03F
:10093000A92EB12CEC89FD89DD2069F0C5010E8C52
:1009400002C0880F991F0A94E2F7808360E079E083
:100950008DE390E005C0108260E874E88EE190E0DD
:10096000A80197010E942E0821503040404050407D
:10097000569547953795279580E12030380720F028
:10098000DD2011F0DD24D6CFE889F9893083EA89AA
:10099000FB892083EE89FF89408121E030E0C90195
:1009A0000A8C02C0880F991F0A94E2F7482B4083F3
:1009B000EE89FF894081C9010B8C02C0880F991F05
:1009C0000A94E2F7482B4083EE89FF894081C901F0
:1009D0000C8C02C0880F991F0A94E2F7482B4083C1
:1009E000EE89FF8980810D8C02C0220F331F0A948B
:1009F000E2F7209528232083DF91CF911F910F915B
:100A0000FF90EF90DF90BF90AF900895DC011C96AF
:100A1000ED91FC911D97E05CFF4F21913191808118
:100A20009181281B390B2F733070C9010895DC01A7
:100A30001C96ED91FC911D97E05CFF4F2081318168
:100A4000E054F040DF01AE5BBF4F8D919C91119758
:100A50002817390719F42FEF3FEF07C08D919C91AC
:100A6000E80FF91F8081282F30E0C9010895DC01CB
:100A70001C96ED91FC911D97E05CFF4F2081318128
:100A8000E054F040DF01AE5BBF4F8D919C91119718
:100A90002817390719F42FEF3FEF10C08D919C9163
:100AA0001197E80FF91F20818D919C911197019664
:100AB0008F73907011969C938E9330E0C9010895C6
:100AC000FC0186859785DC01A05CBF4FFC01EE5BD5
:100AD000FF4F2D913C911197808191812817390703
:100AE000C1F70895CF93DF93EC01EE85FF85E05CBD
:100AF000FF4F20813181E054F0402F5F3F4F2F7333
:100B00003070DF01AE5BBF4F8D919C91119728171C
:100B10003907D1F3E05CFF4F80819181E054F040D0
:100B2000E80FF91F6083EE85FF85E05CFF4F31839E
:100B30002083EE89FF89208181E090E00D8C02C046
:100B4000880F991F0A94E2F7282B208381E090E018
:100B5000DF91CF9108951092F0011092EF0188EE8D
:100B600093E0A0E0B0E08093F1019093F201A093B4
:100B7000F301B093F4018DE091E09093EE01809346
:100B8000ED0185E691E09093FA018093F90189EAFD
:100B900091E09093FC018093FB0185EC90E09093B1
:100BA000FE018093FD0184EC90E09093000280931D
:100BB000FF0180EC90E0909302028093010281ECAF
:100BC00090E0909304028093030286EC90E090936F
:100BD00006028093050284E08093070283E08093FD
:100BE000080287E08093090285E080930A0281E091
:100BF00080930B020895CF93DF930E94C2030E945B
:100C00000803C2E3D4E00E9434022097E1F30E947B
:100C10003204F9CFCF92DF92EF92FF920F931F939E
:100C2000CF93DF937C016B018A01C0E0D0E00FC05D
:100C3000D6016D916D01D701ED91FC910190F0818C
:100C4000E02DC7010995C80FD91F015010400115AB
:100C5000110571F7CE01DF91CF911F910F91FF9098
:100C6000EF90DF90CF900895EF92FF920F931F9334
:100C70008C01DC01ED91FC910190F081E02D6DE0A3
:100C800009957C01D801ED91FC910190F081E02D56
:100C9000C8016AE009959C012E0D3F1DC9011F91F5
:100CA0000F91FF90EF900895CF93DF93DB010D90AC
:100CB0000020E9F71197A61BB70BEC01E881F98139
:100CC0000280F381E02DAD010995DF91CF91089568
:100CD0004F925F927F928F929F92AF92BF92CF92EC
:100CE000DF92EF92FF920F931F93DF93CF93CDB7D5
:100CF000DEB7A1970FB6F894DEBF0FBECDBF2C01B3
:100D0000742ECB01223008F42AE019A231E2C32E5E
:100D1000D12CCC0EDD1E822E9924AA24BB24672D53
:100D2000752FA50194010E942E0879018A01C8013E
:100D3000B701A50194010E940F08472D461B089496
:100D4000C108D1084A3014F4405D01C0495CF60185
:100D50004083E114F1040105110521F07E2C5F2D83
:100D6000C801DDCFC201B6010E945406A1960FB69C
:100D7000F894DEBF0FBECDBFCF91DF911F910F91D1
:100D8000FF90EF90DF90CF90BF90AF909F908F90AB
:100D90007F905F904F900895CF92DF92EF92FF92F5
:100DA0000F931F93CF93DF93EC016A017B01211511
:100DB000310541F4E881F9810190F081E02D642F43
:100DC00009951FC02A303105D1F477FF17C0E8819B
:100DD000F9810190F081E02D6DE209958C014427A5
:100DE0005527BA014C195D096E097F09CE012AE029
:100DF0000E9468069801280F391F04C02AE00E944B
:100E000068069C01C901DF91CF911F910F91FF905E
:100E1000EF90DF90CF900895EF92FF920F931F9382
:100E20007B019A010027F7FC0095102FB801A7015C
:100E30000E94CC061F910F91FF90EF900895CF92E2
:100E4000DF92EF92FF920F931F936C017B019A0147
:100E50000027F7FC0095102FB801A7010E94CC06CF
:100E60008C01C6010E943406080F191FC8011F918A
:100E70000F91FF90EF90DF90CF9008950E9454065D
:100E80000895EF92FF920F931F937C010E945406E6
:100E90008C01C7010E943406080F191FC8011F9159
:100EA0000F91FF90EF900895CF93DF93EC010E9494
:100EB0005B03688779878A879B87E881F98100844B
:100EC000F185E02DCE0109959C0197FF15C00E9488
:100ED0005B03288539854A855B85621B730B840B10
:100EE000950B2C813D814E815F81621773078407CA
:100EF000950718F32FEF3FEFC901DF91CF910895C8
:100F0000CF93DF93EC01CE010E9454079C0197FD23
:100F10000EC08D32910559F0C0970A9740F0E881D4
:100F2000F9810680F781E02DCE010995ECCFC9014A
:100F3000DF91CF9108959F92AF92BF92CF92DF92AF
:100F4000EF92FF920F931F93CF93DF936C01B62E16
:100F50000E948007EC0197FF04C0EE24FF24870164
:100F60004CC09924EE24FF248701AB2CBB24A7FCA2
:100F7000B094CA15DB0529F1CD32D10519F49924B5
:100F800093941FC0CE01C0970A97D8F4C801B70147
:100F90002AE030E040E050E00E940F087B018C0125
:100FA000CE01AA2797FDA095BA2FE80EF91E0A1FB9
:100FB0001B1F80ED9FEFAFEFBFEFE80EF91E0A1F7A
:100FC0001B1FD601ED91FC910680F781E02DC60133
:100FD0000995C6010E945407EC01C0970A9748F290
:100FE000CA15DB0531F2992041F010950095F09477
:100FF000E094E11CF11C011D111DB701C801DF9136
:10100000CF911F910F91FF90EF90DF90CF90BF9005
:10101000AF909F90089561E00E949B070895629FA2
:10102000D001739FF001829FE00DF11D649FE00DE0
:10103000F11D929FF00D839FF00D749FF00D659F41
:10104000F00D9927729FB00DE11DF91F639FB00D40
:10105000E11DF91FBD01CF0111240895A1E21A2E4F
:10106000AA1BBB1BFD010DC0AA1FBB1FEE1FFF1F4C
:10107000A217B307E407F50720F0A21BB30BE40B9C
:10108000F50B661F771F881F991F1A9469F76095E3
:101090007095809590959B01AC01BD01CF0108959D
:1010A000EE0FFF1F0590F491E02D0994F894FFCF07
:1010B0002C0048656C6C6F3F000000000072050A50
:0A10C0000606053705170560050058
:00000001FF
